:02000000C52D0C
:10000800FF00030E8301DA000A08DB008A0170088A
:10001800AC007108AB007208AA007308A900740844
:10002800A8007508A7007608A6007708A500780834
:10003800A4007908A3007A08A2007B08A1000C1C80
:10004800C4284F08013CCF004F0803196A285008FC
:10005800C0005108C1000030C11BFF30C200C300FE
:100068000030F0000030F1000130F2000030F30001
:100078007008F5007108F6007208F7007308F800B8
:100088004008F5024108031C410FF6024208031C10
:10009800420FF7024308031C430FF8027508C80013
:1000A8007608C9007708CA007808CB007608F000FF
:1000B8007708F1007808F2000030F81BFF30F300F1
:1000C80070088F00FF3075058E00C328E830F000F7
:1000D8000330F100F201F3017008F4007108F50033
:1000E8007208F6007308F7004008F4024108031C80
:1000F800410FF5024208031C420FF6024308031C95
:10010800430FF7027408C4007508C5007608C600D6
:100118007708C7000030F0000030F1000130F2002D
:100128000030F3007008F8007108F9007208FA004E
:100138007308FB007408F8027508031C750FF902B0
:100148007608031C760FFA027708031C770FFB0268
:100158007808BB007908BC007A08BD007B08BE009F
:100168007908F0007A08F1007B08F2000030FB1BE8
:10017800FF30F30070088F00FF3078058E000C10F8
:100188002C08F0002B08F1002A08F2002908F300D7
:100198002808F4002708F5002608F6002508F700C7
:1001A8002408F8002308F9002208FA002108FB00B7
:0E01B8005B088A005A0E8300FF0E7F0E0900BE
:0401C600000008002D
:1001CA00083083120313FC002330FD00FD0BEB28DB
:0601DA00FC0BEB280800FD
:1001E000103083120313FD00FD0BF42800000800FB
:1001F00083120313EA1BFE288712FF2887166A1B47
:100200000329071204290716EA1A08298711092960
:1002100087156A1A0D2907110E2907153F1812298B
:100220000714132907108714E3208710EA191A29E5
:1002300087121B2987166A191F29071220290716FA
:10024000EA1824298711252987156A1829290711F1
:100250002A2907153F182E2907142F29071087145C
:10026000E32087103F1C3629E5203729F0200800BD
:1002700083120313F801F9011030FC00710DF80D21
:10028000F90D7408F8027508031C750FF9020318BC
:1002900050297408F80775080318750FF90703103B
:0A02A000F00DF10DFC0B3E290800E3
:1002AA00831203133F106508EA00F8203F14080080
:1002BA00FB09FA09F909F809F80A0319F90A0319ED
:0802CA00FA0A0319FB0A0800FF
:0E02D200831203133A088A00390882000800DC
:1002E00083120313E8010530680203187E296808A9
:1002F0006707840020308000E80A732968086707D0
:1003000084008001E80368086707E9000A30F40008
:10031000F5016508F0006608F10038217808F00062
:100320007908F1003030F007690884007008800017
:100330000A30F400F5016508F0006608F100382184
:100340007008E5007108E60000307106031DAA2957
:1003500000307006031DAD29AF29E803832908008A
:1003600083160313871007100711871107128712CE
:100370008312871007108712071287110711E520D3
:10038000E520E520871507158714E3208710E52071
:100390008714E3208710E5208714E3208710E520E9
:1003A00007118714E3208710E5208714E3208710C6
:1003B000871187168714E3208710E5208712071519
:1003C0008714E320871007118714E3208710E520A6
:1003D0008714E320871007158714E3208710E52092
:1003E00007118714E320871087160716871507154E
:0C03F0008714E3208710E5203F1408006C
:1003FC00FF3083120313CC00FF30CD00FF30CE0052
:10040C00FF309F01C0309F042D09F0007008831647
:0C041C009F051F179F1783121F14080074
:100428007408F8027508031C750FF9027608031C96
:10043800760FFA027708031C770FFB02F30D0730DB
:10044800FC00730DF80DF90DFA0DFB0D7408731C03
:100458003B2AF8027508031C750FF9027608031C7D
:10046800760FFA027708031C770FFB02482AF80771
:1004780075080318750FF90776080318760FFA0739
:1004880077080318770FFB07F30DFC0B252A720D6D
:10049800F80DF90DFA0DFB0D7408731C612AF802AA
:1004A8007508031C750FF9027608031C760FFA020B
:1004B8007708031C770FFB026E2AF80775080318E4
:1004C800750FF90776080318760FFA0777080318E7
:1004D800770FFB07F20D0730FC00720DF80DF90DD0
:1004E800FA0DFB0D7408721C872AF8027508031CA4
:1004F800750FF9027608031C760FFA027708031CB9
:10050800770FFB02942AF80775080318750FF90787
:1005180076080318760FFA0777080318770FFB0792
:10052800F20DFC0B712A710DF80DF90DFA0DFB0D8A
:100538007408721CAD2AF8027508031C750FF902BD
:100548007608031C760FFA027708031C770FFB0264
:10055800BA2AF80775080318750FF90776080318FB
:10056800760FFA0777080318770FFB07F10D0730A6
:10057800FC00710DF80DF90DFA0DFB0D7408711CD6
:10058800D32AF8027508031C750FF9027608031CB4
:10059800760FFA027708031C770FFB02E02AF807A8
:1005A80075080318750FF90776080318760FFA0708
:1005B80077080318770FFB07F10DFC0BBD2A700DA8
:1005C800F80DF90DFA0DFB0D7408711CF92AF802E3
:1005D8007508031C750FF9027608031C760FFA02DA
:1005E8007708031C770FFB02062BF807750803181A
:1005F800750FF90776080318760FFA0777080318B6
:10060800770FFB07F00D0730FC00700DF80DF90DA2
:10061800FA0DFB0D7408701C1F2BF8027508031CDB
:10062800750FF9027608031C760FFA027708031C87
:10063800770FFB022C2BF80775080318750FF907BD
:1006480076080318760FFA0777080318770FFB0761
:10065800F00DFC0B092B70183F2B7408F807750870
:100668000318750FF90776080318760FFA07770845
:080678000318770FFB070800CF
:0E068000073083120313FD00FD0B442B08000E
:10068E00710DF80DF90D7408F8027508031C750F3D
:10069E00F902F00DF10D0F30FC00710DF80DF90D92
:1006AE007408701C602BF8027508031C750FF90294
:1006BE00652BF80775080318750FF907F00DF10D86
:1006CE00FC0B542B7018712B7408F807750803185F
:0806DE00750FF9070000080088
:1006E600831203137408003A031D822B7508003A1F
:1006F600031D822BFF30F0007F30F100DB2B8312CD
:100706000313FD01F901F80171087004031900349F
:1007160071087506FA00FA1BFD09FB01F51F982BF7
:10072600F409F509F40A0319F50AF11F9F2BF009DC
:10073600F109F00A0319F10A71087504FA00FA1BA7
:10074600B42B47237B18C72BFD1F0034F009F10992
:10075600F00A0319F10AF809F909F80A0319F90A5E
:100766000034F51FC32BF11BBF2B7108F90070086D
:10077600F800F101F001A72BF101F001F00A0034B5
:10078600F109F009FB0AA42BF80A0319F90A7408FF
:100796007802031DA72B75087902031DA72BF90103
:1007A600F801F00A0319F10AF11FA72B0000FF3424
:0207B600080039
:1007B80083120313E101E2015C08E3005D08E40031
:1007C80080305D06F00080307002031DED2B003094
:1007D8005C020318FB2B0130E1000030E2005C08EA
:1007E800003CE3005D08031C013EE401E4026308E9
:1007F800E5006408E6005E08E70070210630DF00C7
:100808000030E0006008003C031D0C2C5F08003C31
:100818000318272C5F085E07F20001305F02F00022
:100828000030031C013E6002F10070085E0784007E
:100838000008F00072088400700880000130DF02B0
:10084800031CE003062C5E08840020308000610849
:1008580062040319452CDF01E0015F085E0784008C
:100868000008203A031D3C2CDF0A0319E00A312C4A
:100878000130DF02031CE0035F085E0784002D30AF
:0408880080000800E4
:10088C00831203132230FC00F801F901FA01FB0179
:10089C00FC0303197C2C0310FB0CFA0CF90CF80C60
:1008AC00F30CF20CF10CF00C031C4E2CFC03031992
:1008BC006E2C7408F80775080318750FF90776087D
:1008CC000318760FFA0777080318770FFB07522CDB
:1008DC007408F80775080318750FF90776080318DC
:0E08EC00760FFA0777080318770FFB0708004E
:1008FA008F2C803083120313DC00A22CC030DC0062
:10090A00A22C9430DC00A22CD430DC00A22C803043
:10091A00DC00A22C831203135C08013A03197E2C13
:10092A005C08023A0319832C5C08033A0319862CE3
:10093A005C08043A0319892C8C2C5D03F0005C08CE
:10094A00F0077008DC007008EA00F8203F10DF01A9
:10095A005F085E07840000080319BB2C5F085E0766
:10096A0084000008E5005521DF0AAD2C3F14080079
:10097A0069218A110A128000840AB90A0319BA0A7B
:08098A00F003031DBD2C080061
:10099200831203137408003A031DE42C7508003A0D
:1009A200031DE42C7608003A031DE42C7708003A74
:1009B200031DE42CFF30F000FF30F100FF30F200A5
:1009C2007F30F3007D2D83120313FC01F71BFC0A19
:1009D200FD01FB01FA01F901F801730872047104C7
:1009E20070040319782D73087706A000A01BFD0977
:1009F200F71F062DF409F509F609F709F40A031998
:100A0200F50A0319F60A0319F70AF31F132DF00961
:100A1200F109F209F309F00A0319F10A0319F20ABA
:100A22000319F30A73087704A000A01B342D1422C3
:100A3200FC1B512DFD1F782DF009F109F209F30974
:100A4200F00A0319F10A0319F20A0319F30AF80961
:100A5200F909FA09FB09F80A0319F90A0319FA0A4A
:100A62000319FB0A782DF71F4B2DF31B452D730835
:100A7200FB007208FA007108F9007008F800F3012F
:100A8200F201F101F0011B2DF301F201F101F0017C
:100A9200F00A0034F309F209F109F009FC17182DE4
:100AA200F80A0319F90A0319FA0A0319FB0A740866
:100AB2007802031D1B2D75087902031D1B2D760874
:100AC2007A02031D1B2D77087B02031D1B2DFB01E0
:100AD200FA01F901F801F00A0319F10A0319F20AFD
:100AE2000319F30AF31F1B2DA0012016FF34A001E6
:0A0AF2007C1C7C2D5D21003E0800F5
:100AFC00831203139F01C0309F042D09F00070086E
:100B0C0083169F051F179F1783125C08F000F00DCA
:100B1C007010F00D7010F00D701070089F041F1401
:100B2C0040231F151F1D9C2D0000982D1F101E0803
:100B3C00F100F00183161E08F0040030F1040800E7
:100B4C00831203139F111F169F1283169F01FF30F0
:100B5C0085000610FE218B170B17013090008316B1
:100B6C000C1483120C10B0210130EA00F8200C3068
:0E0B7C00EA00F820FF308F000C308E000800D9
:100B8A003E26A625D001D101CF010130DC0001307B
:100B9A00DD002E30DE007D244F18D52D0610D62D0F
:100BAA0006140230DC007E2570088312D600710814
:100BBA00D700D801D9015608F0005708F1005808A3
:100BCA00F2005908F3006430F400F501F601F70168
:100BDA0046247008D6007108D7007208D800730836
:100BEA00D9000A30F400F501F601F701462470082D
:100BFA00D6007108D7007208D8007308D9000030EF
:100C0A00F4000430F500F601F701C9247008D60093
:100C1A007108D7007208D8007308D9007008D0008C
:100C2A007108D1000A30F4000030F500732370080F
:100C3A00DC007108DD005230DE00DC230130DC000C
:0E0C4A000B30DD005230DE007D24D12D2B2E2C
:100C7C002D3084000C3083120313F0003130B90096
:080C8C000630BA00BD24080087
:020C62000F344D
:100C640044347534743479346334793463346C348F
:060C740065343D3400343C
:02400E004A2F37
:00000001FF
